{
  "_format": "hh-sol-artifact-1",
  "contractName": "Raffle",
  "sourceName": "Contracts/Raffle.sol",
  "abi": [
    {
      "inputs": [
        {
          "internalType": "address",
          "name": "vrfCoordinator",
          "type": "address"
        },
        {
          "internalType": "uint256",
          "name": "entranceFee",
          "type": "uint256"
        },
        {
          "internalType": "bytes32",
          "name": "gasLane",
          "type": "bytes32"
        },
        {
          "internalType": "uint64",
          "name": "subscription_id",
          "type": "uint64"
        },
        {
          "internalType": "uint32",
          "name": "callbackGasLimit",
          "type": "uint32"
        }
      ],
      "stateMutability": "nonpayable",
      "type": "constructor"
    },
    {
      "inputs": [
        {
          "internalType": "address",
          "name": "have",
          "type": "address"
        },
        {
          "internalType": "address",
          "name": "want",
          "type": "address"
        }
      ],
      "name": "OnlyCoordinatorCanFulfill",
      "type": "error"
    },
    {
      "inputs": [],
      "name": "Raffle__InsufficientFunds",
      "type": "error"
    },
    {
      "inputs": [],
      "name": "Raffle__TransactionFailure",
      "type": "error"
    },
    {
      "anonymous": false,
      "inputs": [
        {
          "indexed": true,
          "internalType": "address",
          "name": "player",
          "type": "address"
        }
      ],
      "name": "RaffleEnter",
      "type": "event"
    },
    {
      "anonymous": false,
      "inputs": [
        {
          "indexed": true,
          "internalType": "uint256",
          "name": "requestId",
          "type": "uint256"
        }
      ],
      "name": "RequestRaffleWinner",
      "type": "event"
    },
    {
      "anonymous": false,
      "inputs": [
        {
          "indexed": true,
          "internalType": "address",
          "name": "winner",
          "type": "address"
        }
      ],
      "name": "winnerPicked",
      "type": "event"
    },
    {
      "inputs": [],
      "name": "enterRaffle",
      "outputs": [],
      "stateMutability": "payable",
      "type": "function"
    },
    {
      "inputs": [],
      "name": "getEntrancefee",
      "outputs": [
        {
          "internalType": "uint256",
          "name": "",
          "type": "uint256"
        }
      ],
      "stateMutability": "view",
      "type": "function"
    },
    {
      "inputs": [
        {
          "internalType": "uint256",
          "name": "index",
          "type": "uint256"
        }
      ],
      "name": "getPlayers",
      "outputs": [
        {
          "internalType": "address",
          "name": "",
          "type": "address"
        }
      ],
      "stateMutability": "view",
      "type": "function"
    },
    {
      "inputs": [],
      "name": "getRecentWinner",
      "outputs": [
        {
          "internalType": "address",
          "name": "",
          "type": "address"
        }
      ],
      "stateMutability": "view",
      "type": "function"
    },
    {
      "inputs": [],
      "name": "pickRandomNumber",
      "outputs": [],
      "stateMutability": "nonpayable",
      "type": "function"
    },
    {
      "inputs": [
        {
          "internalType": "uint256",
          "name": "requestId",
          "type": "uint256"
        },
        {
          "internalType": "uint256[]",
          "name": "randomWords",
          "type": "uint256[]"
        }
      ],
      "name": "rawFulfillRandomWords",
      "outputs": [],
      "stateMutability": "nonpayable",
      "type": "function"
    },
    {
      "inputs": [],
      "name": "requestRandomNumber",
      "outputs": [],
      "stateMutability": "nonpayable",
      "type": "function"
    }
  ],
  "bytecode": "0x6101406040523480156200001257600080fd5b5060405162000f2138038062000f2183398181016040528101906200003891906200016e565b848073ffffffffffffffffffffffffffffffffffffffff1660808173ffffffffffffffffffffffffffffffffffffffff1660601b81525050508361012081815250508473ffffffffffffffffffffffffffffffffffffffff1660a08173ffffffffffffffffffffffffffffffffffffffff1660601b815250508260c081815250508063ffffffff166101008163ffffffff1660e01b815250508167ffffffffffffffff1660e08167ffffffffffffffff1660c01b815250505050505050620002e9565b6000815190506200010c8162000267565b92915050565b600081519050620001238162000281565b92915050565b6000815190506200013a816200029b565b92915050565b6000815190506200015181620002b5565b92915050565b6000815190506200016881620002cf565b92915050565b600080600080600060a086880312156200018d576200018c62000262565b5b60006200019d88828901620000fb565b9550506020620001b08882890162000129565b9450506040620001c38882890162000112565b9350506060620001d68882890162000157565b9250506080620001e98882890162000140565b9150509295509295909350565b6000620002038262000214565b9050919050565b6000819050919050565b600073ffffffffffffffffffffffffffffffffffffffff82169050919050565b6000819050919050565b600063ffffffff82169050919050565b600067ffffffffffffffff82169050919050565b600080fd5b6200027281620001f6565b81146200027e57600080fd5b50565b6200028c816200020a565b81146200029857600080fd5b50565b620002a68162000234565b8114620002b257600080fd5b50565b620002c0816200023e565b8114620002cc57600080fd5b50565b620002da816200024e565b8114620002e657600080fd5b50565b60805160601c60a05160601c60c05160e05160c01c6101005160e01c61012051610bce620003536000396000818161022b01526104eb01526000610420015260006103fd015260006103dc015260006103a001526000818161016b01526101bf0152610bce6000f3fe6080604052600436106100705760003560e01c8063473f1ddc1161004e578063473f1ddc146100e55780638678a7b214610110578063a2acb2eb14610127578063d9dba7321461013e57610070565b80631fe543e3146100755780632cfcc5391461009e578063460e2049146100a8575b600080fd5b34801561008157600080fd5b5061009c600480360381019061009791906107d0565b610169565b005b6100a6610229565b005b3480156100b457600080fd5b506100cf60048036038101906100ca9190610776565b61032b565b6040516100dc91906108be565b60405180910390f35b3480156100f157600080fd5b506100fa610372565b60405161010791906108be565b60405180910390f35b34801561011c57600080fd5b5061012561039c565b005b34801561013357600080fd5b5061013c6104e5565b005b34801561014a57600080fd5b506101536104e7565b6040516101609190610955565b60405180910390f35b7f000000000000000000000000000000000000000000000000000000000000000073ffffffffffffffffffffffffffffffffffffffff163373ffffffffffffffffffffffffffffffffffffffff161461021b57337f00000000000000000000000000000000000000000000000000000000000000006040517f1cf993f40000000000000000000000000000000000000000000000000000000081526004016102129291906108d9565b60405180910390fd5b610225828261050f565b5050565b7f0000000000000000000000000000000000000000000000000000000000000000341015610283576040517f4826f45500000000000000000000000000000000000000000000000000000000815260040160405180910390fd5b6000339080600181540180825580915050600190039060005260206000200160009091909190916101000a81548173ffffffffffffffffffffffffffffffffffffffff021916908373ffffffffffffffffffffffffffffffffffffffff1602179055503373ffffffffffffffffffffffffffffffffffffffff167f0805e1d667bddb8a95f0f09880cf94f403fb596ce79928d9f29b74203ba284d460405160405180910390a2565b60008082815481106103405761033f610ad5565b5b9060005260206000200160009054906101000a900473ffffffffffffffffffffffffffffffffffffffff169050919050565b6000600160009054906101000a900473ffffffffffffffffffffffffffffffffffffffff16905090565b60007f000000000000000000000000000000000000000000000000000000000000000073ffffffffffffffffffffffffffffffffffffffff16635d3b1d307f00000000000000000000000000000000000000000000000000000000000000007f000000000000000000000000000000000000000000000000000000000000000060037f000000000000000000000000000000000000000000000000000000000000000060016040518663ffffffff1660e01b8152600401610461959493929190610902565b602060405180830381600087803b15801561047b57600080fd5b505af115801561048f573d6000803e3d6000fd5b505050506040513d601f19601f820116820180604052508101906104b391906107a3565b9050807fde6349b018d6c03d837b67d9a198a6ba4842546f2295fe963fae141e5dbaef8160405160405180910390a250565b565b60007f0000000000000000000000000000000000000000000000000000000000000000905090565b600080805490508260008151811061052a57610529610ad5565b5b602002602001015161053c9190610a75565b9050600080828154811061055357610552610ad5565b5b9060005260206000200160009054906101000a900473ffffffffffffffffffffffffffffffffffffffff16905080600160006101000a81548173ffffffffffffffffffffffffffffffffffffffff021916908373ffffffffffffffffffffffffffffffffffffffff16021790555060008173ffffffffffffffffffffffffffffffffffffffff16476040516105e7906108a9565b60006040518083038185875af1925050503d8060008114610624576040519150601f19603f3d011682016040523d82523d6000602084013e610629565b606091505b5050905080610664576040517f05ffdec500000000000000000000000000000000000000000000000000000000815260040160405180910390fd5b8173ffffffffffffffffffffffffffffffffffffffff167f794919b0f484b8e90b1b817ac7f880f846fbd8a9813dee2a378e820db094e3d160405160405180910390a25050505050565b60006106c16106bc84610995565b610970565b905080838252602082019050828560208602820111156106e4576106e3610b38565b5b60005b8581101561071457816106fa888261074c565b8452602084019350602083019250506001810190506106e7565b5050509392505050565b600082601f83011261073357610732610b33565b5b81356107438482602086016106ae565b91505092915050565b60008135905061075b81610b81565b92915050565b60008151905061077081610b81565b92915050565b60006020828403121561078c5761078b610b42565b5b600061079a8482850161074c565b91505092915050565b6000602082840312156107b9576107b8610b42565b5b60006107c784828501610761565b91505092915050565b600080604083850312156107e7576107e6610b42565b5b60006107f58582860161074c565b925050602083013567ffffffffffffffff81111561081657610815610b3d565b5b6108228582860161071e565b9150509250929050565b610835816109cc565b82525050565b610844816109de565b82525050565b60006108576001836109c1565b915061086282610b58565b600182019050919050565b610876816109e8565b82525050565b61088581610a16565b82525050565b61089481610a20565b82525050565b6108a381610a30565b82525050565b60006108b48261084a565b9150819050919050565b60006020820190506108d3600083018461082c565b92915050565b60006040820190506108ee600083018561082c565b6108fb602083018461082c565b9392505050565b600060a082019050610917600083018861083b565b610924602083018761089a565b610931604083018661086d565b61093e606083018561088b565b61094b608083018461088b565b9695505050505050565b600060208201905061096a600083018461087c565b92915050565b600061097a61098b565b90506109868282610a44565b919050565b6000604051905090565b600067ffffffffffffffff8211156109b0576109af610b04565b5b602082029050602081019050919050565b600081905092915050565b60006109d7826109f6565b9050919050565b6000819050919050565b600061ffff82169050919050565b600073ffffffffffffffffffffffffffffffffffffffff82169050919050565b6000819050919050565b600063ffffffff82169050919050565b600067ffffffffffffffff82169050919050565b610a4d82610b47565b810181811067ffffffffffffffff82111715610a6c57610a6b610b04565b5b80604052505050565b6000610a8082610a16565b9150610a8b83610a16565b925082610a9b57610a9a610aa6565b5b828206905092915050565b7f4e487b7100000000000000000000000000000000000000000000000000000000600052601260045260246000fd5b7f4e487b7100000000000000000000000000000000000000000000000000000000600052603260045260246000fd5b7f4e487b7100000000000000000000000000000000000000000000000000000000600052604160045260246000fd5b600080fd5b600080fd5b600080fd5b600080fd5b6000601f19601f8301169050919050565b7f2000000000000000000000000000000000000000000000000000000000000000600082015250565b610b8a81610a16565b8114610b9557600080fd5b5056fea2646970667358221220147b834ce386816a7a618abfe8cf5896b6c709a73f568373574a6b940950dcc664736f6c63430008070033",
  "linkReferences": {},
  "deployedLinkReferences": {}
}