{
  "_format": "hh-sol-artifact-1",
  "contractName": "Raffle",
  "sourceName": "Contracts/Raffle.sol",
  "abi": [
    {
      "inputs": [
        {
          "internalType": "address",
          "name": "vrfCoordinator",
          "type": "address"
        },
        {
          "internalType": "uint256",
          "name": "entranceFee",
          "type": "uint256"
        }
      ],
      "stateMutability": "nonpayable",
      "type": "constructor"
    },
    {
      "inputs": [
        {
          "internalType": "address",
          "name": "have",
          "type": "address"
        },
        {
          "internalType": "address",
          "name": "want",
          "type": "address"
        }
      ],
      "name": "OnlyCoordinatorCanFulfill",
      "type": "error"
    },
    {
      "inputs": [],
      "name": "Raffle__InsufficientFunds",
      "type": "error"
    },
    {
      "anonymous": false,
      "inputs": [
        {
          "indexed": true,
          "internalType": "address",
          "name": "player",
          "type": "address"
        }
      ],
      "name": "RaffleEnter",
      "type": "event"
    },
    {
      "inputs": [],
      "name": "enterRaffle",
      "outputs": [],
      "stateMutability": "payable",
      "type": "function"
    },
    {
      "inputs": [],
      "name": "getEntrancefee",
      "outputs": [
        {
          "internalType": "uint256",
          "name": "",
          "type": "uint256"
        }
      ],
      "stateMutability": "view",
      "type": "function"
    },
    {
      "inputs": [
        {
          "internalType": "uint256",
          "name": "index",
          "type": "uint256"
        }
      ],
      "name": "getPlayers",
      "outputs": [
        {
          "internalType": "address",
          "name": "",
          "type": "address"
        }
      ],
      "stateMutability": "view",
      "type": "function"
    },
    {
      "inputs": [],
      "name": "pickRandomNumber",
      "outputs": [],
      "stateMutability": "nonpayable",
      "type": "function"
    },
    {
      "inputs": [
        {
          "internalType": "uint256",
          "name": "requestId",
          "type": "uint256"
        },
        {
          "internalType": "uint256[]",
          "name": "randomWords",
          "type": "uint256[]"
        }
      ],
      "name": "rawFulfillRandomWords",
      "outputs": [],
      "stateMutability": "nonpayable",
      "type": "function"
    }
  ],
  "bytecode": "0x60c060405234801561001057600080fd5b50604051610808380380610808833981810160405281019061003291906100a4565b818073ffffffffffffffffffffffffffffffffffffffff1660808173ffffffffffffffffffffffffffffffffffffffff1660601b81525050508060a081815250505050610153565b60008151905061008981610125565b92915050565b60008151905061009e8161013c565b92915050565b600080604083850312156100bb576100ba610120565b5b60006100c98582860161007a565b92505060206100da8582860161008f565b9150509250929050565b60006100ef826100f6565b9050919050565b600073ffffffffffffffffffffffffffffffffffffffff82169050919050565b6000819050919050565b600080fd5b61012e816100e4565b811461013957600080fd5b50565b61014581610116565b811461015057600080fd5b50565b60805160601c60a05161067f610189600039600081816101c301526103100152600081816101030152610157015261067f6000f3fe60806040526004361061004a5760003560e01c80631fe543e31461004f5780632cfcc53914610078578063460e204914610082578063a2acb2eb146100bf578063d9dba732146100d6575b600080fd5b34801561005b57600080fd5b5061007660048036038101906100719190610418565b610101565b005b6100806101c1565b005b34801561008e57600080fd5b506100a960048036038101906100a491906103eb565b6102c3565b6040516100b69190610492565b60405180910390f35b3480156100cb57600080fd5b506100d461030a565b005b3480156100e257600080fd5b506100eb61030c565b6040516100f891906104d6565b60405180910390f35b7f000000000000000000000000000000000000000000000000000000000000000073ffffffffffffffffffffffffffffffffffffffff163373ffffffffffffffffffffffffffffffffffffffff16146101b357337f00000000000000000000000000000000000000000000000000000000000000006040517f1cf993f40000000000000000000000000000000000000000000000000000000081526004016101aa9291906104ad565b60405180910390fd5b6101bd8282610334565b5050565b7f000000000000000000000000000000000000000000000000000000000000000034101561021b576040517f4826f45500000000000000000000000000000000000000000000000000000000815260040160405180910390fd5b6000339080600181540180825580915050600190039060005260206000200160009091909190916101000a81548173ffffffffffffffffffffffffffffffffffffffff021916908373ffffffffffffffffffffffffffffffffffffffff1602179055503373ffffffffffffffffffffffffffffffffffffffff167f0805e1d667bddb8a95f0f09880cf94f403fb596ce79928d9f29b74203ba284d460405160405180910390a2565b60008082815481106102d8576102d76105af565b5b9060005260206000200160009054906101000a900473ffffffffffffffffffffffffffffffffffffffff169050919050565b565b60007f0000000000000000000000000000000000000000000000000000000000000000905090565b5050565b600061034b61034684610516565b6104f1565b9050808382526020820190508285602086028201111561036e5761036d610612565b5b60005b8581101561039e578161038488826103d6565b845260208401935060208301925050600181019050610371565b5050509392505050565b600082601f8301126103bd576103bc61060d565b5b81356103cd848260208601610338565b91505092915050565b6000813590506103e581610632565b92915050565b6000602082840312156104015761040061061c565b5b600061040f848285016103d6565b91505092915050565b6000806040838503121561042f5761042e61061c565b5b600061043d858286016103d6565b925050602083013567ffffffffffffffff81111561045e5761045d610617565b5b61046a858286016103a8565b9150509250929050565b61047d81610542565b82525050565b61048c81610574565b82525050565b60006020820190506104a76000830184610474565b92915050565b60006040820190506104c26000830185610474565b6104cf6020830184610474565b9392505050565b60006020820190506104eb6000830184610483565b92915050565b60006104fb61050c565b9050610507828261057e565b919050565b6000604051905090565b600067ffffffffffffffff821115610531576105306105de565b5b602082029050602081019050919050565b600061054d82610554565b9050919050565b600073ffffffffffffffffffffffffffffffffffffffff82169050919050565b6000819050919050565b61058782610621565b810181811067ffffffffffffffff821117156105a6576105a56105de565b5b80604052505050565b7f4e487b7100000000000000000000000000000000000000000000000000000000600052603260045260246000fd5b7f4e487b7100000000000000000000000000000000000000000000000000000000600052604160045260246000fd5b600080fd5b600080fd5b600080fd5b600080fd5b6000601f19601f8301169050919050565b61063b81610574565b811461064657600080fd5b5056fea2646970667358221220221cedcc47302193ac20ace1ab5a9d27b20de3db1845283be8014c86b0c6e90764736f6c63430008070033",
  "linkReferences": {},
  "deployedLinkReferences": {}
}