{
  "_format": "hh-sol-artifact-1",
  "contractName": "Raffle",
  "sourceName": "Contracts/Raffle.sol",
  "abi": [
    {
      "inputs": [
        {
          "internalType": "uint256",
          "name": "entranceFee",
          "type": "uint256"
        }
      ],
      "stateMutability": "nonpayable",
      "type": "constructor"
    },
    {
      "inputs": [],
      "name": "getEntrancefee",
      "outputs": [
        {
          "internalType": "uint256",
          "name": "",
          "type": "uint256"
        }
      ],
      "stateMutability": "view",
      "type": "function"
    }
  ],
  "bytecode": "0x60a060405234801561001057600080fd5b5060405161019538038061019583398181016040528101906100329190610055565b8060808181525050506100a8565b60008151905061004f81610091565b92915050565b60006020828403121561006b5761006a61008c565b5b600061007984828501610040565b91505092915050565b6000819050919050565b600080fd5b61009a81610082565b81146100a557600080fd5b50565b60805160d56100c06000396000604b015260d56000f3fe6080604052348015600f57600080fd5b506004361060285760003560e01c8063d9dba73214602d575b600080fd5b60336047565b604051603e9190607c565b60405180910390f35b60007f0000000000000000000000000000000000000000000000000000000000000000905090565b6076816095565b82525050565b6000602082019050608f6000830184606f565b92915050565b600081905091905056fea26469706673582212203d1eae4a49d9ecee0b40c1b0737faac7f315df70aa2812f25c5fd68b1fe1567564736f6c63430008070033",
  "linkReferences": {},
  "deployedLinkReferences": {}
}